:020000040800F2
:100000000040002029770008D5210008D7210008EA
:10001000D9210008DB210008DD21000800000000D4
:10002000000000000000000000000000DF210008C8
:100030000000000000000000E1210008E3210008AA
:1000400071770008EB2100087177000871770008CC
:1000500071770008717700087177000871770008E0
:1000600071770008717700087177000871770008D0
:1000700071770008717700087177000871770008C0
:1000800071770008717700087177000871770008B0
:1000900071770008E7210008717700087177000880
:1000A0007177000871770008717700087177000890
:1000B0007177000871770008717700087177000880
:1000C0007177000871770008E52100087177000852
:0400D000717700083C
:100100000348044B834202D0034B03B118477047A6
:100110004805002048050020000000000548064B67
:100120001B1AD90F01EBA301491002D0034B03B1F5
:1001300018477047480500204805002000000000CF
:1001400010B5064C237843B9FFF7DAFF044B13B11F
:100150000448AFF300800123237010BD4805002040
:10016000000000008877000808B5044B1BB1044963
:100170000448AFF30080BDE80840CFE7000000006E
:100180004C0500208877000881F0004102E000BFA4
:1001900083F0004330B54FEA41044FEA430594EA47
:1001A000050F08BF90EA020F1FBF54EA000C55EA82
:1001B000020C7FEA645C7FEA655C00F0E2804FEA53
:1001C0005454D4EB5555B8BF6D420CDD2C4480EA35
:1001D000020281EA030382EA000083EA010180EA65
:1001E000020281EA0303362D88BF30BD11F0004FB3
:1001F0004FEA01314FF4801C4CEA113102D04042E9
:1002000061EB410113F0004F4FEA03334CEA133323
:1002100002D0524263EB430394EA050F00F0A7803B
:10022000A4F10104D5F1200E0DDB02FA0EFC22FA36
:1002300005F2801841F1000103FA0EF2801843FA2A
:1002400005F359410EE0A5F120050EF1200E012A1B
:1002500003FA0EFC28BF4CF0020C43FA05F3C01859
:1002600051EBE37101F0004507D54FF0000EDCF1D2
:10027000000C7EEB00006EEB0101B1F5801F1BD37B
:10028000B1F5001F0CD349085FEA30004FEA3C0C7F
:1002900004F101044FEA445212F5800F80F09A8075
:1002A000BCF1004F08BF5FEA500C50F1000041EB79
:1002B000045141EA050130BD5FEA4C0C404141EB7D
:1002C0000101013C28BFB1F5801FE9D291F0000F78
:1002D00004BF01460020B1FA81F308BF2033A3F127
:1002E0000B03B3F120020CDA0C3208DD02F1140C1E
:1002F000C2F10C0201FA0CF021FA02F10CE002F159
:100300001402D8BFC2F1200C01FA02F120FA0CFC51
:10031000DCBF41EA0C019040E41AA2BF01EB04519A
:10032000294330BD6FEA04041F3C1CDA0C340EDC98
:1003300004F11404C4F1200220FA04F001FA02F3DB
:1003400040EA030021FA04F345EA030130BDC4F199
:100350000C04C4F1200220FA02F001FA04F340EA8E
:100360000300294630BD21FA04F0294630BD94F03F
:10037000000F83F4801306BF81F480110134013D26
:100380004EE77FEA645C18BF7FEA655C29D094EA97
:10039000050F08BF90EA020F05D054EA000C04BF15
:1003A0001946104630BD91EA030F1EBF0021002000
:1003B00030BD5FEA545C05D14000494128BF41F09F
:1003C000004130BD14F580043CBF01F5801130BD03
:1003D00001F0004545F0FE4141F470014FF000008E
:1003E00030BD7FEA645C1ABF194610467FEA655C3F
:1003F0001CBF0B46024650EA013406BF52EA0335E1
:1004000091EA030F41F4002130BD00BF90F0000FCE
:1004100004BF0021704730B54FF4806404F132040A
:100420004FF000054FF0000150E700BF90F0000FC3
:1004300004BF0021704730B54FF4806404F13204EA
:1004400010F0004548BF40424FF000013EE700BFBA
:1004500042004FEAE2014FEA31014FEA02701FBF4A
:1004600012F07F4393F07F4F81F06051704732F07C
:100470007F4208BF704793F07F4F04BF41F40021D3
:10048000704730B54FF4607401F0004521F0004131
:100490001CE700BF50EA010208BF704730B54FF0BB
:1004A00000050AE050EA010208BF704730B511F0BC
:1004B000004502D5404261EB41014FF4806404F1F4
:1004C00032045FEA915C3FF4D8AE4FF003025FEA7A
:1004D000DC0C18BF03325FEADC0C18BF033202EBFE
:1004E000DC02C2F1200300FA03FC20FA02F001FA58
:1004F00003FE40EA0E0021FA02F11444BDE600BFFB
:1005000070B54FF0FF0C4CF4E06C1CEA11541DBFA9
:100510001CEA135594EA0C0F95EA0C0F00F0DEF874
:100520002C4481EA030621EA4C5123EA4C5350EA59
:10053000013518BF52EA033541F4801143F48013AA
:1005400038D0A0FB02CE4FF00005E1FB02E506F03B
:100550000042E0FB03E54FF00006E1FB03569CF090
:10056000000F18BF4EF0010EA4F1FF04B6F5007F96
:1005700064F5407404D25FEA4E0E6D4146EB060608
:1005800042EAC62141EA55514FEAC52040EA5E5091
:100590004FEACE2EB4F1FD0C88BFBCF5E06F1ED83B
:1005A000BEF1004F08BF5FEA500E50F1000041EB72
:1005B000045170BD06F0004646EA010140EA02001F
:1005C00081EA0301B4EB5C04C2BFD4EB0C0541EA41
:1005D000045170BD41F480114FF0000E013C00F356
:1005E000AB8014F1360FDEBF002001F0004170BD7A
:1005F000C4F10004203C35DA0C341BDC04F1140493
:10060000C4F1200500FA05F320FA04F001FA05F21E
:1006100040EA020001F0004221F0004110EBD370EB
:1006200021FA04F642EB06015EEA430E08BF20EA17
:10063000D37070BDC4F10C04C4F1200500FA04F3BA
:1006400020FA05F001FA04F240EA020001F000414C
:1006500010EBD37041F100015EEA430E08BF20EABF
:10066000D37070BDC4F1200500FA05F24EEA020E07
:1006700020FA04F301FA05F243EA020321FA04F036
:1006800001F0004121FA04F220EA020000EBD370ED
:100690005EEA430E08BF20EAD37070BD94F0000FED
:1006A0000FD101F00046400041EB010111F4801F21
:1006B00008BF013CF7D041EA060195F0000F18BFD2
:1006C000704703F00046520043EB030313F4801F0E
:1006D00008BF013DF7D043EA0603704794EA0C0FC8
:1006E0000CEA135518BF95EA0C0F0CD050EA4106DE
:1006F00018BF52EA4306D1D181EA030101F000415B
:100700004FF0000070BD50EA410606BF1046194682
:1007100052EA430619D094EA0C0F02D150EA01368E
:1007200013D195EA0C0F05D152EA03361CBF1046CF
:1007300019460AD181EA030101F0004141F0FE416E
:1007400041F470014FF0000070BD41F0FE4141F4F2
:10075000780170BD70B54FF0FF0C4CF4E06C1CEAF2
:1007600011541DBF1CEA135594EA0C0F95EA0C0FA7
:1007700000F0A7F8A4EB050481EA030E52EA033562
:100780004FEA013100F088804FEA03334FF0805583
:1007900045EA131343EA12634FEA022245EA1115B0
:1007A00045EA10654FEA00260EF000419D4208BF61
:1007B000964244F1FD0404F5407402D25B084FEA0E
:1007C0003202B61A65EB03055B084FEA32024FF4BA
:1007D00080104FF4002CB6EB020E75EB030E22BF17
:1007E000B61A754640EA0C005B084FEA3202B6EBD7
:1007F000020E75EB030E22BFB61A754640EA5C0086
:100800005B084FEA3202B6EB020E75EB030E22BF15
:10081000B61A754640EA9C005B084FEA3202B6EB16
:10082000020E75EB030E22BFB61A754640EADC00D5
:1008300055EA060E18D04FEA051545EA16754FEA37
:1008400006164FEAC30343EA52734FEAC2025FEA55
:100850001C1CC0D111F4801F0BD141EA00014FF0E4
:1008600000004FF0004CB6E711F4801F04BF0143B5
:100870000020B4F1FD0C88BFBCF5E06F3FF6AFAED1
:10088000B5EB030C04BFB6EB020C5FEA500C50F161
:10089000000041EB045170BD0EF0004E4EEA1131E4
:1008A00014EB5C04C2BFD4EB0C0541EA045170BDEB
:1008B00041F480114FF0000E013C90E645EA060E2F
:1008C0008DE60CEA135594EA0C0F08BF95EA0C0F5D
:1008D0003FF43BAF94EA0C0F0AD150EA01347FF4A5
:1008E00034AF95EA0C0F7FF425AF104619462CE77C
:1008F00095EA0C0F06D152EA03353FF4FDAE1046DF
:10090000194622E750EA410618BF52EA43067FF42F
:10091000C5AE50EA41047FF40DAF52EA43057FF4BF
:10092000EBAE12E74FF0FF3C06E000BF4FF0010CCA
:1009300002E000BF4FF0010C4DF804CD4FEA410C2E
:100940007FEA6C5C4FEA430C18BF7FEA6C5C1BD0FB
:1009500001B050EA410C0CBF52EA430C91EA030F7C
:1009600002BF90EA020F0020704710F1000F91EAD9
:10097000030F58BF994208BF90422CBFD8176FEAA7
:10098000E37040F0010070474FEA410C7FEA6C5C75
:1009900002D150EA013C07D14FEA430C7FEA6C5C7C
:1009A000D6D152EA033CD3D05DF8040B704700BFA8
:1009B0008446104662468C461946634600E000BFF6
:1009C00001B5FFF7B7FF002848BF10F1000F01BDC8
:1009D0004DF808EDFFF7F4FF0CBF012000205DF893
:1009E00008FB00BF4DF808EDFFF7EAFF34BF012018
:1009F00000205DF808FB00BF4DF808EDFFF7E0FFB1
:100A000094BF012000205DF808FB00BF4DF808ED01
:100A1000FFF7CEFF94BF012000205DF808FB00BF68
:100A20004DF808EDFFF7C4FF34BF012000205DF84A
:100A300008FB00BF4FEA410212F5001215D211D592
:100A40006FF47873B3EB625212D94FEAC12343F0CB
:100A5000004343EA505311F0004F23FA02F018BF4D
:100A6000404270474FF00000704750EA013005D116
:100A700011F0004008BF6FF0004070474FF00000D9
:100A8000704700BF4A0011D212F5001211D20DD5E5
:100A90006FF47873B3EB62520ED44FEAC12343F084
:100AA000004343EA505323FA02F070474FF000002E
:100AB000704750EA013002D14FF0FF3070474FF0DD
:100AC0000000704753B94AB9002908BF00281CBF6D
:100AD0004FF0FF314FF0FF3000F088B9ADF1080C56
:100AE0006DE904CE00F024F8DDF804E0DDE902232E
:100AF00004B07047D0B50C4B002206460F46FFF7F6
:100B0000FFFCFFF7BFFF0446FFF780FC074B002206
:100B1000FFF7F6FC02460B4630463946FFF738FB36
:100B2000FFF7B0FF2146D0BD0000F03D0000F041CE
:100B30002DE9F047089D0E4604460F46002B4AD18A
:100B400094468C45B2FA82F260D942B1C2F12003D8
:100B5000974020FA03F30CFA02FC1F4394404FEA3B
:100B60001C4E1FFA8CF6B7FBFEF1230C0EFB11771F
:100B700043EA074301FB06F098420AD91CEB030342
:100B800001F1FF3780F01581984240F2128102395D
:100B900063441B1AA4B2B3FBFEF00EFB103344EA0D
:100BA000034400FB06F6A6420AD91CEB040400F13C
:100BB000FF3380F00081A64240F2FD806444023899
:100BC00040EA0140A41B00211DB1D4400023C5E927
:100BD0000043BDE8F0878B4205D90DB1C5E900019E
:100BE00000210846F5E7B3FA83F1002946D1B34264
:100BF00002D3824200F2F580841A66EB03020120E0
:100C00001746002DE5D0C5E90047E2E7002A40F08D
:100C10009380A1EB0C034FEA1C471FFA8CFE0121C5
:100C2000B3FBF7F607FB1630230C43EA00430EFB39
:100C300006F0984208D91CEB030306F1FF3802D2F4
:100C4000984200F2D08046461B1AA4B2B3FBF7F0DC
:100C500007FB103344EA03440EFB00FEA64508D907
:100C60001CEB040400F1FF3302D2A64500F2B6806B
:100C70001846A4EB0E0440EA0640A5E7C1F12007A0
:100C80008B4022FA07FC4CEA030C06FA01FE20FA1C
:100C900007F426FA07F344EA0E0400FA01F84FEAD3
:100CA0001C404FEA1449B3FBF0FE1FFA8CF600FB20
:100CB0001E3349EA03430EFB06F9994502FA01F295
:100CC0000BD91CEB03030EF1FF3A80F085809945A8
:100CD00040F28280AEF1020E6344A3EB0909A4B294
:100CE000B9FBF0F300FB139944EA094403FB06F651
:100CF000A64208D91CEB040403F1FF3068D2A642D7
:100D000066D9023B644443EA0E40A41BA0FB02E602
:100D1000B4427346B14652D34FD05DB1B8EB030233
:100D200064EB090404FA07F722FA01F31F43CC40ED
:100D3000C5E9007400214CE7C2F1200120FA01F35B
:100D40000CFA02FC26FA01F1964033434FEA1C47A5
:100D50001FFA8CFEB1FBF7F007FB1016190C41EAE5
:100D6000064100FB0EF68E4204FA02F408D91CEB91
:100D7000010100F1FF382DD28E422BD90238614497
:100D8000891B9BB2B1FBF7F607FB161143EA01433F
:100D900006FB0EF1994208D91CEB030306F1FF385C
:100DA00014D2994212D9023E63445B1A46EA0041CA
:100DB00036E73946EDE6184602E7F045ADD2BEEB20
:100DC000020366EB0C060138B146A6E74646ECE79F
:100DD000034698E74046D3E7D6467EE764440238A8
:100DE00047E708460DE7023E63442DE7704700BF22
:100DF00000000000000000000000000000000000F3
:100E000030B490F800F020F007016FF0000C10F003
:100E1000070491F820F040F048804FF000046FF094
:100E20000700D1E9002391F840F000F1080082FAB0
:100E30004CF2A4FA8CF283FA4CF3A2FA8CF34BBB7B
:100E4000D1E9022382FA4CF200F10800A4FA8CF2F4
:100E500083FA4CF3A2FA8CF3E3B9D1E9042382FAC2
:100E60004CF200F10800A4FA8CF283FA4CF3A2FAD7
:100E70008CF37BB9D1E9062301F1200182FA4CF20F
:100E800000F10800A4FA8CF283FA4CF3A2FA8CF376
:100E9000002BC6D0002A04BF04301A4612BAB2FA98
:100EA00082F200EBD20030BC7047D1E9002304F09D
:100EB0000305C4F100004FEAC50514F0040F91F8D2
:100EC00040F00CFA05F562EA05021CBF63EA05036F
:100ED00062464FF00004AAE7830730B547D0541E9E
:100EE000002A3ED0CAB2034601E0013C39D303F8E0
:100EF000012B9D07F9D1032C2CD9CDB205EB05258B
:100F00000F2C05EB054535D9A4F1100222F00F0C8A
:100F100003F1100EE6444FEA121C1A46C2E90055CE
:100F2000C2E9025510327245F8D10CF1010214F0F9
:100F30000C0F03EB021204F00F0C13D0ACF10403FE
:100F400023F003030433134442F8045B9342FBD1C0
:100F50000CF003042CB1C9B21C4403F8011BA342DA
:100F6000FBD130BD64461346002CF4D1F9E70346AB
:100F70001446C0E71A46A446E0E700BF002A3ED068
:100F800030B584460446084380070B462ED1032A19
:100F900007D82BE0043A25D01EF0803F22D1032A47
:100FA00022D92068194653F8045BA0F1013EA842FB
:100FB000A4462EEA000E04F10404EBD09CF80000D5
:100FC0000C7884421DD1E64668B11EF8010F11F875
:100FD000014FA2EB0E03A04203F1FF3311D11CEB32
:100FE0000303F1D1002030BDA44619469CF800004F
:100FF0000C78A04205D1012AF4D0E646E4E7104679
:101000007047001B30BD00BF0A22002100F0AEB8BF
:101010000A23002200F09CB8242B2DE9F84F43D876
:10102000012B41D0804649481F468E4675461EF822
:1010300001BB10F80B4014F00804F7D1BBF12D0FE1
:101040006FD0BBF12B0F08BF9EF800B06FF00049C6
:1010500008BF05F1020E73BBBBF1300F4BD00A275E
:101060003B460025B9FBF7F6284607FB169A05E034
:101070003AD007FB00C001251EF801BBABF1300CD4
:10108000BCF1090F06D9ABF1410CBCF1190F19D80D
:10109000ABF1370C63451EDDB5F1FF3FECD0864266
:1010A000E6D24FF0FF35E7E700F05CF91623036066
:1010B0000020BDE8F88F102BD3D1BBF1300F23D027
:1010C0001F46CEE7ABF1610CBCF1190F03D8ABF1B1
:1010D000570C6345E0DC6B1C2BD054B9002AE8D0D8
:1010E00085BB1160BDE8F88FE245C2DA4FF0FF35ED
:1010F000C2E74042F2E79EF8003003F0DF03582BCE
:1011000008D008273B46ACE79EF8000000F0DF005F
:101110005828D5D110279EF801B03B460EF1020E9B
:101120009FE79EF800B04FF0004905F1020E012440
:1011300091E72223C8F8003032B10EF1FF31484662
:101140001160CFE78146F8E74846B2E7497A0008E0
:1011500062E700BF10B4044C84461346206810BCFC
:101160000A46614658E700BF1000002010B4044C46
:1011700084461346206810BC0A4661464CE700BF0F
:1011800010000020024B0146186800F0F1B800BFC3
:1011900010000020024B0146186800F0F3BB00BFAE
:1011A00010000020844641EA000313F003036DD1D0
:1011B000403A41D351F8043B40F8043B51F8043B1A
:1011C00040F8043B51F8043B40F8043B51F8043B21
:1011D00040F8043B51F8043B40F8043B51F8043B11
:1011E00040F8043B51F8043B40F8043B51F8043B01
:1011F00040F8043B51F8043B40F8043B51F8043BF1
:1012000040F8043B51F8043B40F8043B51F8043BE0
:1012100040F8043B51F8043B40F8043B51F8043BD0
:1012200040F8043B51F8043B40F8043B51F8043BC0
:1012300040F8043B403ABDD2303211D351F8043B60
:1012400040F8043B51F8043B40F8043B51F8043BA0
:1012500040F8043B51F8043B40F8043B103AEDD20F
:101260000C3205D351F8043B40F8043B043AF9D260
:10127000043208D0D2071CBF11F8013B00F8013B33
:1012800001D30B8803806046704700BF082A13D340
:101290008B078DD010F003038AD0C3F10403D21A58
:1012A000DB071CBF11F8013B00F8013B80D331F88C
:1012B000023B20F8023B7BE7043AD9D3013A11F80C
:1012C000013B00F8013BF9D20B7803704B78437077
:1012D0008B7883706046704770B50F4B0F4DAB42F3
:1012E000A3EB050607D0B610002455F8043B0134E3
:1012F0009847A642F9D806F047FA094D094B5E1BFC
:10130000AB424FEAA60606D0002455F8043B013450
:101310009847A642F9D870BD0489000804890008DE
:10132000048900080C890008704700BF704700BF9F
:10133000002301461A46184600F02EBC38B5074D6A
:10134000074C2C1BA41005D0013C55F8043D9847D0
:10135000002CF9D1BDE8384006F01CBA108900080D
:101360000C890008014B1868704700BF100000206E
:101370002DE9F04F01F10B05162D83B0064623D859
:10138000102900F2AF80FFF7CFFF102518230220AD
:10139000C14F3B44A3F108025C68944200F02581F0
:1013A0006368E268A16823F00303CA6023443046FF
:1013B00091605A6842F001025A60FFF7B7FF0834A3
:1013C000204603B0BDE8F08F35F0070500F18A80B4
:1013D000A94200F28780FFF7A7FFB5F5FC7FC0F0B8
:1013E0006D816B0A00F08280042B00F22481AB092E
:1013F00003F1390003F1380EC300A74F3B44A3F1BA
:10140000080C5C68A44507D10DE0002AE16880F271
:10141000E6808C4507D00C46636823F003035A1B13
:101420000F2AF2DD7046DFF874823C69444500F013
:10143000C380636823F0030CACEB05030F2B00F3B0
:101440004181002BC7E9048880F22C81BCF5007F24
:10145000D7F804E080F0CF804FEADC0101314FEA99
:101460005C1C012303FA0CF357F83120A2604EEA0A
:10147000030E07EBC103083BE360C7F804E047F83D
:101480003140D46083104FF0010C0CFA03FCF4459A
:1014900032D81CEA0E0F08D120F003004FEA4C0CA2
:1014A0001CEA0E0F00F10400F8D007EBC00AD64684
:1014B0008146DEF80C300BE0596821F003014A1B2D
:1014C0000F2A1C46DB6800F3C280002A80F2D68017
:1014D0009E45F1D109F1010919F0030F0EF1080E33
:1014E000E7D118E10C233360002469E74FF400735F
:1014F00040204FF03F0E80E7BC68636823F003098B
:10150000A94503D3A9EB05030F2B58DCDFF890B1F5
:10151000DBF8002004EB09031032082002EB050879
:10152000009300F02BFBD7F808140131024605D0D8
:1015300008F1FF388044414201EA0808414630463C
:10154000009200F05BFBB0F1FF3F009A824600F092
:10155000D48004EB0903834200F2CD80DBF8041051
:101560004144CBF80410084602F1FF3C40F0F580FE
:101570001AEA0C0F40F0F180D7F808A0C84448F0F0
:101580000100CAF80400DBF82C208A42DBF8302086
:1015900038BFCBF82C108A4238BFCBF830105446F5
:1015A00020F00308A845A8EB050301D30F2B06DCA8
:1015B0003046FFF7BBFE97E7D7F804E062E7621911
:1015C00043F0010345F0010565603046BA605360A1
:1015D000FFF7ACFE0834204603B0BDE8F08FA268E8
:1015E0002344D16030468A60E3E6DC68A3427FF49E
:1015F000D7AE023017E7BCF5206F4FEA5C2273D3F9
:10160000142A00F20A8102F15C03DB005B32F91854
:10161000FB580839994203D1E6E09B68994204D00F
:101620005A6822F003026245F7D8D968C4E902314A
:101630008C60DC6026E7142B62D9542B00F2F68014
:101640002B0B03F16F0003F16E0EC300D5E6D4F847
:1016500008C03046661945F001056560CCF80C30CD
:10166000C3F808C042F00103C7E90466C6E902886E
:1016700073606250FFF75AFE0834A1E621443046F9
:101680004A6842F001024A6054F8082FD3609A6019
:10169000FFF74CFE94E600BF380100204001002017
:1016A00078070020A4443046DCF8043043F00103FE
:1016B000CCF80430FFF73AFE083481E6E80805F17B
:1016C000080365E6621943F0010145F00105656014
:1016D0003046C7E90422C2E90288516044F80C3060
:1016E000FFF724FE08346BE64FEA9C1202F139033F
:1016F000DB0038328BE7BC4228D0BC6860684FE71B
:1017000003F15C0003F15B0EC30076E65AF808397A
:10171000534540F0D88010F0030F00F1FF30F5D1B1
:101720007B6823EA0C037B604FEA4C0C9C453FF638
:10173000E3AEBCF1000F04D1DEE64FEA4C0C09F138
:1017400004091CEA030FF8D04846AEE6DBF80400B3
:101750004044CBF8040002F1FF3CD7F808140131F3
:101760006ED004EB0903AAEB03031844CBF8040082
:101770001AF00703009341D0C3F108018A44D04412
:101780000A4408EA0C01521A02EA0C01304601919F
:1017900000F034FA421C6FD00199A0EB0A0000EB74
:1017A0000108DBF80420C7F808A048F00100114444
:1017B000BC42CAF80400CBF804103FF4E4AEB9F11F
:1017C0000F0F40D96268A9F10C0020F0070002F069
:1017D000010202436260052322180F28C2E9013387
:1017E00052D8DAF80400CEE692104FF0010C0CFA51
:1017F00002F24EEA020EC7F804E017E70AEB08010E
:1018000001EA0C01521A02EA0C013046019100F083
:10181000F5F9431CC0D10099C3E7542A17D84FEA01
:101820001C3202F16F03DB006E32F0E6B3F5AA7FE3
:1018300017D8EB0B03F1780003F1770EC300DCE55A
:10184000C7F808A494E70123CAF80430B0E6B2F55B
:10185000AA7F23D84FEADC3202F17803DB0077322B
:10186000D5E640F25452934223D8AB0C03F17D00ED
:1018700003F17C0EC300C0E5009BA3F10802904475
:10188000A8EB0A0800218CE704F10801304600F0BB
:1018900079F8DBF80410D7F808A0A2E740F2545317
:1018A0009A420CD84FEA9C4202F17D03DB007C3265
:1018B000ADE64FF47E737F204FF07E0E9DE54FF432
:1018C0007E737E22A3E67B682EE700BF2DE9F843F6
:1018D00006460820894600F051F9DFF89C8005464D
:1018E0003046FFF721FDD8F808305F6827F003077E
:1018F000A7F11104A4EB09042C44B4FBF5F4013C5A
:1019000005FB04F4A54208DC0021304600F076F91E
:10191000D8F808303B44984205D03046FFF706FD22
:101920000020BDE8F8836142304600F067F90130DD
:101930000FD0124AD8F808303F1B47F001075F600C
:10194000136830461B1B1360FFF7F0FC0120BDE855
:10195000F8830021304600F051F9D8F80820831AA6
:101960000F2BDADD43F001035360054B03491B687D
:10197000C01A0860D1E700BF380100207C070020B2
:101980004005002000297CD0F8B50C460646FFF73C
:10199000CBFC54F8043C764FA4F1080523F0010178
:1019A0006818D7F808C04268844522F0030200F0A6
:1019B0008380DB07426000EB020C33D454F8084C00
:1019C000DCF804302D1B2144AC6807F1080C644599
:1019D00003F0010364D0D5F80CE0C4F80CE0CEF8B5
:1019E0000840002B00F0818041F001036B60016032
:1019F000B1F5007F22D27868CB0801224909013372
:101A00008A40024357F833107A6007EBC302083A62
:101A1000C5E9021247F83350CD603046BDE8F840C2
:101A2000FFF784BCDCF80430DB072BD541F0010361
:101A3000B1F5007F44F8043C0160DCD3B1F5206FC0
:101A40004FEA512353D28B0903F1390003F13802D5
:101A5000C300F818FB580838984203D161E09B682E
:101A6000984204D05A6822F003028A42F7D8D86814
:101A7000C5E902308560DD603046BDE8F840FFF71B
:101A800055BC7047114407F1080C836863453FD08B
:101A9000C268DA60936041F001036B606950A7E7A8
:101AA000002B5FD10A44D0E90213CB60996042F069
:101AB00001036B60AA50B0E70A44D90707D454F871
:101AC000083CED1A1A44D5E90213CB60996042F044
:101AD00001036B60274BBD601B6893429DD8264B6A
:101AE00030461968FFF7F2FE97E71144CDE7142B53
:101AF00008D9542B1DD80B0B03F16F0003F16E02B4
:101B0000C300A6E703F15C0003F15B02C300A0E79A
:101B100041F00103C7E90455C5E902CC6B60695087
:101B20007BE779689210012404FA02F20A437A6092
:101B30009EE7B3F5AA7F06D8CB0B03F1780003F13B
:101B40007702C30085E740F25452934206D88B0CCB
:101B500003F17D0003F17C02C3007AE74FF47E734A
:101B60007E2276E741F001036B60016055E700BF1C
:101B7000380100204405002078070020082802D101
:101B80004FF48050704708B5FFF7ECFB1623036055
:101B90004FF0FF3008BD00BF70B4164D2C681CB369
:101BA00065681F2D23DC38B9AB1C0135656044F82E
:101BB0002310002070BC704704EB850C0228CCF881
:101BC0008820D4F888614FF0010202FA05F246EA53
:101BD0000206C4F88861CCF80831E5D1D4F88C311C
:101BE0001343C4F88C31DFE7034C2C60D8E74FF087
:101BF000FF30DFE7AC070020B007002038B5074D05
:101C00000022044608462A6000F0ECF9431C00D08C
:101C100038BD2B68002BFBD0236038BD7C0A002028
:101C2000C1F30A5C2DE9F041ACF2FF35132D0246F9
:101C30000B460C46064634DC002D20DBDFF8D08056
:101C400048FA05F801EA080C5CEA000C0F462DD0B2
:101C50002DA3D3E90023FEF79DFA00220023FEF70F
:101C6000DFFE40B1002C03DD4FF480132B411F44F5
:101C700027EA0804002621463046BDE8F08122A369
:101C8000D3E90023FEF786FA00220023FEF7C8FE00
:101C90000028F0D0002C33DB344300D01D4C00264C
:101CA000E9E7332D06DDB5F5806F26D010461946DD
:101CB000BDE8F081ACF2134C4FF0FF3727FA0CF778
:101CC0003842F3D010A3D3E90023FEF763FA0022D1
:101CD0000023FEF7A5FE0028CDD0002C334609DDF9
:101CE000142D06D0C5F134050122AA4013449E42AA
:101CF00000D9013423EA0706BDE7FEF74BFAD7E720
:101D000000264FF00044B6E79C7500883CE4377E1F
:101D1000FFFF0F000000F03F38B5C1F30A54A4F2F2
:101D2000FF3CBCF1130F02460B468E461BDCBCF198
:101D3000000F11DB1E4941FA0CF101EA03001043C8
:101D400017D04FF4002343FA0CF3734423EA010E37
:101D500000237146184638BDBCF1FF3F01F0004E2C
:101D600020D00023F5E7BCF1330F05DDBCF5806F13
:101D700015D01046194638BDA4F213444FF0FF3178
:101D8000E1400142F5D0CCF1330C012303FA0CF30E
:101D90001B1828BF0EF1010E23EA0103D9E7FEF755
:101DA000F9F938BD4EF07F5E4EF4401E0023D0E7B7
:101DB000FFFF0F0000000000C1F30A5C2DE9F041B5
:101DC000ACF2FF35132D02460B460C46064632DCBC
:101DD000002D20DBDFF8E08048FA05F801EA080C66
:101DE0005CEA000C0F462BD031A3D3E90023FEF7A9
:101DF000D1F900220023FEF713FE40B1002C03DAD4
:101E00004FF480132B411F4427EA08040026214683
:101E10003046BDE8F08126A3D3E90023FEF7BAF9E6
:101E200000220023FEF7FCFD0028F0D0002C27DB69
:101E300000263446EBE7332D06DDB5F5806F1CD068
:101E400010461946BDE8F081ACF2134C4FF0FF3755
:101E500027FA0CF70742F3D015A3D3E90023FEF7C6
:101E600099F900220023FEF7DBFD0028CFD0002CDB
:101E700033460CDB23EA0706C9E7FEF78BF9E1E7F7
:101E800024F0004426430DD14FF00044BFE7142D49
:101E900006D0C5F134050122AA401344B342E9D269
:101EA0000134E7E7054C0026B1E700BFAFF300803F
:101EB0009C7500883CE4377EFFFF0F000000F0BFF8
:101EC000F0B5C1F30A55A5F2FF3EBEF1130F83B082
:101ED00002460B460C4684464FEAD1765DDCBEF1E5
:101EE000000F31DB3D4941FA0EF101EA03001043D6
:101EF00059D003EA510352EA030C4FEA51010ED0C4
:101F0000AEF1130C24EA0101BCFA8CFC4FF48024DE
:101F10004FEA5C1C44FA0EF44FEACC7C0C43304987
:101F200001EBC6012346D1E9004562462046294619
:101F3000FEF730F9CDE90001DDE9000122462B462C
:101F4000FEF726F903B0F0BD21F000410143194628
:101F5000F8D0C3F313020243214D534205EBC605EB
:101F60001343D5E90067620C1B0B03F400235204F2
:101F700043EA02010B46024639463046FEF70AF9AB
:101F8000CDE90001DDE9000132463B46FEF700F9EC
:101F900061F31E04214603B0F0BDBEF1330F06DD30
:101FA000BEF5806F17D01046194603B0F0BDA5F2FC
:101FB00013454FF0FF31E9400842F4D04B0810EAD6
:101FC0005101ACD04FF0804C20EA03034CFA05FCE1
:101FD00043EA0C0CA3E7FEF7DDF8B3E7FFFF0F00C1
:101FE000507B0008024A03461068034413607047A0
:101FF0000000002008B50121022003F0BDFB0121F3
:102000001F2003F05FF901210D2003F05BF901218E
:10201000202003F057F90121212003F053F9012179
:10202000222003F04FF90121412003F04BF9012157
:10203000032003F047F90121002003F043F90121B7
:102040000E2003F03FF9642002F080FF012003F02E
:10205000C1F800F06BFEBDE8084005F091B808B586
:10206000FFF7C8FF00F002F8002008BD2DE9F0419D
:10207000BEB050480AAB0222432100F0FBF8012811
:102080000DD14D480BAB1022432100F0F3F801288D
:1020900005D14A4802F0D2FE474800F043FD002433
:1020A0002146C8220CA88DF81F408DF820408DF8DD
:1020B0002140FEF711FF01238DF823403D4CADF880
:1020C00026308DF822302378FF2B05D13C4802F0D2
:1020D000B5FE204600F09EFE3A483B4D3B4FDFF8F0
:1020E000D88002F0ABFE00238DF81E3000F01EFEFB
:1020F0006420FFF747F8012406461021284603F024
:102100002EFD012830D11021284603F02EFD40215C
:10211000284603F02AFD384602F090FE0DF1260213
:102120000CA909A800F03EFE8DF82100022C22D057
:10213000032C36D0012CE0D108AB05930DF11F0321
:10214000049309AB03930DF1210302930DF12603D0
:1021500001930CAB009317480DF11E03022243219B
:1021600000F0F2FA0446C8E74021284603F0F7FCE5
:102170000128DBD1C7E70DF12303CDE9046309ABE7
:1021800003930DF1210302930DF1260301930CAB90
:10219000009310220DF122034321404600F064FB1E
:1021A000E0E70B4802F04AFE4FF4FA6002F0CEFE80
:1021B000A3E700BF00D0000800E00008607B000833
:1021C0006D7B0008A47B000800300040CE7B000837
:1021D000E47B00087047FEE7FEE7FEE7FEE7704796
:1021E00070477047704704F0EBBB05F0DBB803465F
:1021F0003038C2B2092A0FD9A3F16102052A02D8E8
:10220000A3F157007047A3F14102052A02D8A3F1B8
:10221000370070474FF0FF307047F8B5013904467A
:1022200017460025BD42237820DA302B03D04FF02B
:10223000FF352846F8BD6378782BF8D1A078FFF7F2
:10224000D6FF0646E078FFF7D2FF56EA0003EED449
:1022500040EA061001F8010F23792C2B05F1010546
:1022600001D10534DEE7002BE1D104342378002BC3
:10227000DFD0DCE730B52AB918600078431A58423D
:1022800058410EE004780444013A6578A94204F10B
:102290000100D2B2EFD1A378FF2B03D1B2FA82F0C2
:1022A000400930BD0120FCE770B508B38378202BCE
:1022B0001ED14379202B1BD1037A202B18D1C37A4E
:1022C000B3B9013900F10C040A250278303AD3B2CF
:1022D000092B0DD84378303BDEB2092E08D80330E5
:1022E00005FB0233A04201F8013FEED1002070BD92
:1022F0004FF0FF30FBE730B549B10446013914F81F
:10230000010BC5B211F0FF0120442C5DF5D118601E
:1023100003781370012030BD2DE9F84307460E46BF
:102320001B48DFF87C9011461546984602F086FD62
:10233000184802F083FD0024B44211D1A919C8F84D
:1023400000101548DFF85C8002F078FD324639460F
:10235000284602F033FE0024B44208D1002013E0E6
:102360003A5D2146484602F069FD0134E4E7295D03
:10237000404602F063FD2A5D3B5D9A4206D0074865
:10238000214602F05BFD0120BDE8F8830134E3E75C
:102390001E7C00084C7C00088D7C0008BD7C000879
:1023A0007A7C0008B37C000838B504460D46FEF779
:1023B000E9FE044403462D1AA34200D138BDEA5C6D
:1023C00003F8012BF8E700002DE9F74306463048F3
:1023D00090461C4602F032FD31462E4802F02EFD9A
:1023E000002531460B78FF2B06D00B7801351D44B4
:1023F00011F8013B1944F5E731462846FFF7D4FFB1
:102400002C440A9BA4B207461C7008F1FF38AC426A
:1024100025DCDFF88480DFF884900025AC4223DCE3
:10242000304602F099FD324601AB21463846FFF7AF
:1024300073FF31462046FFF7B7FFDFF85C80DFF817
:102440005C9006460025AC4218DC3846FEF7A2FE3A
:102450003046FEF79FFE019803B0BDE8F08318F800
:10246000013F7B550135D2E72946404602F0E6FCA4
:10247000795D484602F0E2FC0135CFE72946404647
:1024800002F0DCFC715D484602F0D8FC0135DAE769
:10249000DD7C0008F57C0008137D00082983000816
:1024A0002DE9F84F1D4604468846014627480A9FF5
:1024B000DFF8A890DFF8A8A0164602F0BFFC631C66
:1024C0002B6024782248E4B2214602F0B7FC296848
:1024D0002046FFF769FF4FF0000BC8F800005C458D
:1024E00029681DDC0131214439601A48DFF8708009
:1024F00002F0A4FC3B68184813F8015CEDB22946D1
:1025000002F09CFC39682846FFF74EFF0027306038
:10251000BD4213DC0B9B1C700C9B1D70BDE8F88F3B
:102520005944484602F08AFCD8F80030504613F867
:102530000B1002F083FC0BF1010BD0E7336840462F
:10254000D95D02F07BFC0137E2E700BF247D000883
:102550003F7D00086F7D0008977D0008547D0008CE
:10256000697D000838B50C46154608B9002038BD0D
:102570001A4802F063FC032C05D91948A11E02F089
:102580005DFC0120F3E720D1164802F057FC144807
:10259000012102F053FC6B786E2B08D0792B10D1FF
:1025A000114802F04BFC114B2B700220DFE7104862
:1025B00002F044FC0F4802F041FC0F4802F03EFCE0
:1025C000DFE70E4802F03AFCD0E70D4802F036FC97
:1025D000A11E034802F032FCC8E700BFAC7D000832
:1025E000CA820008C67D0008DD7D0008A0770008CB
:1025F000EC7D0008067E0008377E0008457E000856
:10260000627E00082DE9F04115468AB01E46074655
:10261000002845D08C1E147021462248DFF8948093
:1026200002F00CFC0DF1170302930DF11603019358
:1026300009AB0093304608AB07AA06A9FFF730FFA5
:1026400000269DF816309E421DDB013529461648AE
:1026500002F0F4FB9DF81660069932462846FEF714
:102660008DFCC0B9B44216D1104802F0E7FB109BB4
:1026700006981F70FEF78EFD0798FEF78BFD04206D
:102680000AB0BDE8F081069B31469A5D404602F0F3
:10269000D5FB0136D5E7064802F0D0FB0027E6E778
:1026A0000220EDE76B7E0008997E00089C7E000802
:1026B000AF7E0008847E0008F0B50D468BB014464E
:1026C0001E460746002834D0023D1B4802F0B6FBE8
:1026D00004F8015B2946194802F0B0FB0DF117031D
:1026E00002930DF11603019309AB07AA304600933C
:1026F00006A908ABFFF7D4FE2146114802F09EFB65
:102700009DF81760079932462046FEF737FC08B956
:10271000B54203D00B4802F091FB0027109B0698AE
:102720001F70FEF737FD0798FEF734FD06200BB04B
:10273000F0BD0420FBE700BFD27E00086B7E0008DE
:10274000997E0008EE7E00082DE9FF471C46D2B2B4
:1027500003ABDDE90E57DDE9109ADDF8308006465F
:10276000FFF788FD012804D12E4802F067FB022004
:1027700014E02378062B10D8DFE803F00413190FB8
:10278000250F3000398828784246FFF7EBFE20708D
:102790000138012801D800232B70012004B0BDE8C6
:1027A000F087214802F04AFB00232370F5E7CDF8BB
:1027B00000903988287833464246FFF723FF20707F
:1027C0000428EAD1E7E7CDF800A039882878334615
:1027D0004246FFF771FF20700628F2E7134802F027
:1027E0002DFB9AF80030CBB199F80030B3B1104806
:1027F00002F024FB0F4802F021FB0F4802F01EFB01
:1028000043238DF808300DF10B03009302AA012336
:102810000DF10A013046FFF7D7FDA8E70223237028
:10282000B9E700BF0A7F00083C7F0008637F00080B
:102830007F7F0008997F0008BC7F000810B5074C17
:10284000074B22689A42014604D1064802F0F6FA84
:102850000023236023680133236010BD640500203A
:10286000400D0300D47F00082DE9F04F87B01C46CF
:1028700002238DF81330D2B205ABDDE9107ADDE921
:102880001256DDE914898346FFF7F4FC01280AD1CA
:10289000924802F0D3FA03238DF813309DF8130009
:1028A00007B0BDE8F08F2378013B162B24D8DFE872
:1028B00013F01700260032003E004A0056005F0069
:1028C0006B007700800089009500A100AD00230017
:1028D000B9002300D100C500DD00E900F5000301C7
:1028E0007F48FFF7ABFFCDF800902978308843464A
:1028F0003A4600F041FB207000232B70CEE7794868
:10290000FFF79CFFCDE9009A4346297830883A4684
:1029100000F0A2FBEFE77448FFF790FFCDE9009AC3
:102920004346297830883A4600F0B0FBE3E76F4829
:10293000FFF784FFCDE9009A4346297830883A466C
:1029400000F0BEFBD7E76A48FFF778FFCDE9009AB1
:102950004346297830883A4600F0CCFBCBE7CDE9F6
:10296000009A4346297830883A4600F0E9FBC2E7EE
:102970006048FFF763FFCDF8009029783088434620
:102980003A4600F0CBFCB6E75B48FFF757FFCDF8BF
:1029900000902978308843463A4600F00FFCAAE7B9
:1029A000CDF800902978308843463A4600F00AFD79
:1029B000A1E7CDF800902978308843463A4600F0E8
:1029C0004FFD98E74D48FFF739FFCDF80090297883
:1029D000308843463A4600F0A3FD8CE74848FFF7AD
:1029E0002DFFCDF800902978308843463A4600F014
:1029F00001FE80E74348FFF721FFCDF800902978DA
:102A0000308843463A4600F05BFE74E73E48FFF7E5
:102A100015FFCDF800902978308843463A4600F0FB
:102A2000ABFE68E73948FFF709FFCDF80090297839
:102A3000308843463A4600F021FF5CE73448FFF710
:102A4000FDFECDF800902978308843463A4600F0E4
:102A500055FF50E72F48FFF7F1FECDF80090297899
:102A6000308843463A4600F089FF44E72A48FFF79A
:102A7000E5FECDF800902978308843463A4600F0CC
:102A8000BDFF38E72548FFF7D9FECDF8009029783B
:102A9000308843463A4601F00BF82CE72048FFF710
:102AA000CDFE0DF11303CDE900933A462978308825
:102AB000434601F03DF81EE70DF11303039399F827
:102AC00000300097CDE901832B1E18BF0123B2B25D
:102AD00005A9584600F0B8FB0DE700BFE87F0008E5
:102AE0000E8000081A800008248000082F8000084B
:102AF0003A80000845800008538000086080000884
:102B00006A80000880800008908000089980000892
:102B1000A2800008AD800008BB800008CA800008C1
:102B2000DA800008F0B5374E374DB9B001F0E2F861
:102B30000123ADF80E30336E01930027019B334C17
:102B400098471021284603F00AF801281ED11021C9
:102B5000284603F00AF84021284603F006F82C48DE
:102B600002F06CF90DF10E0206A903A800F01AF9A3
:102B700087BB09232370BDF80C100239C9B206A81F
:102B800001F068F82070D9E70127D7E740212846EF
:102B900002F0E5FF0128DAD02378013B0A2BCDD8DB
:102BA00001A252F823F000BF012C0008892B000875
:102BB000DB2B00083D2B0008F52B00083D2B0008FF
:102BC0003D2B0008ED2B0008772B0008012C000896
:102BD000012C0008032323700027BDF80C100239D4
:102BE000C9B20DF1190001F057F9CBE704A801F0C3
:102BF00029F8C7E7736B00209847062323709DE7E9
:102C00000523FBE7C47900080030004004000020E1
:102C1000FB800008014B05221A7070470400002059
:102C200007B500230093CAB20146044800F040F8FB
:102C3000034B05221A7003B05DF804FB003000401E
:102C40000400002007B50423009306480123002256
:102C5000202100F02DF8044B05221A7003B05DF816
:102C600004FB00BF003000400400002007B5022331
:102C70000093064801230022202100F019F8044B9C
:102C800005221A7003B05DF804FB00BF003000405D
:102C90000400002007B501230448009300222021EE
:102CA00000F006F803B05DF804FB00BF0030004000
:102CB0002DE9F04106469DF8185017461C461BB1F9
:102CC000012B15D0BDE8F08102F101088D1E54B929
:102CD000214601343046E4B202F01AFF444505F1C2
:102CE0000105F4DDEEE7012C14BF29783946F0E741
:102CF000194602F00DFF6B1E032BE3D8DFE803F04B
:102D00000207090B0548BDE8F04102F097B80448F6
:102D1000F9E70448F7E70448F5E700BF1881000821
:102D2000218100082C810008358100081FB51C4C4A
:102D300001211F2002F0C6FA0121202002F0C2FA70
:102D400020460122002102F023FA012211462046EA
:102D500002F01EFA01A802F0EEFE4FF4E1330193F7
:102D60006023A4F5E234ADF8083000238DF80A3072
:102D700001A94FF098732046039302F0F9FE204614
:102D8000012102F0E3FE20460122102102F0CBFED9
:102D900001224021204602F0C6FE04B010BD00BF53
:102DA00000F401402DE9F843DFF86080DFF860901F
:102DB00007460E4614461021404602F0A3FE0128A5
:102DC00001D1002019E0404602F0A7FE0146054669
:102DD000484602F033F82388C62B13D85A1C0A2D14
:102DE0002280F5540BD1084802F028F823880022ED
:102DF000F254012023883B802080BDE8F8830D2D0C
:102E0000D9D1F0E70124D6E7438100080030004023
:102E1000408100082DE9F0434D4A95B051680646BF
:102E2000106801AB03C34B4B06AA03F10805174614
:102E300018685968144603C40833AB422246F7D1D8
:102E400018681B792371082320608DF80C3000244A
:102E500003AB0134092C05D001AA224412F8012C3D
:102E6000E254F6E73C483D4D01F0E8FF21463C487E
:102E700001F0E4FF9DF80C203A48002101F0DEFF4C
:102E800000240DF10C080134092C06D018F8042098
:102E90002146284601F0D2FFF5E70D238DF82830B2
:102EA00000250AAC01350E2D04D07B1913F8013C26
:102EB0002B55F7E72C4801F0C1FF29462B4801F0BC
:102EC000BDFF03AA07CA0EAB03C30CAD1A7023469D
:102ED0000DF141041A4603CAAA42206061601346FC
:102EE00004F10804F6D1106820609388A38020487C
:102EF000DFF86880DFF86C9001F0A0FF0EAD0024D1
:102F000040F2012727FA04F315F8012BDB0749BF2C
:102F10002146214615F8012C484658BF4046013449
:102F200001F08CFF172CEDD1304602F015F86B46FE
:102F3000324621460EA8FFF7EFF9C0B230B10D4876
:102F400001F07CFF002015B0BDE8F0830098FAE79F
:102F5000268200082F82000850810008A381000803
:102F60007081000894810008B2810008D3810008B4
:102F7000F7810008168200082DE9F047089E804678
:102F800014461F4619B901242046BDE8F0872A4897
:102F900001F054FFA8F10303022BF4D8274801F0F5
:102FA0004DFF4046FEF7EEF804F101094444DFF816
:102FB000A0800546824619F8011B0A2910D100237A
:102FC0008AF800302846FEF71FF880B2FF280FD994
:102FD0001B4801F033FF01242846FEF7DBF8D3E756
:102FE0000AF8011B404601F029FFA145E3D1E9E7BA
:102FF0001448DFF8608001F021FF2846FEF704F84E
:103000003478631C337001233B5533785A1C32707B
:10301000C1B2F8540C4801F011FF3378A34204DC2C
:103020000A4801F00BFF0224D6E73A5D21464046EC
:1030300001F004FF0134F0E73D82000863820008DC
:103040007A820008A6820008BF820008F982000880
:1030500061880008D182000838B50546144671B170
:10306000084801F0EBFE0848A91E01F0E7FE059BA9
:103070002C441D802C2304F8013C032038BD022081
:10308000FCE700BF038300081583000838B5054638
:10309000144671B1084801F0D1FE0848A91E01F09C
:1030A000CDFE059B2C441D802C2304F8013C0420FC
:1030B00038BD0320FCE700BF038300081583000828
:1030C00038B50546144671B1084801F0B7FE084806
:1030D000A91E01F0B3FE059B2C441D802C2304F88F
:1030E000013C052038BD0420FCE700BF0383000835
:1030F0001583000870B5059E05461446A9B10C4815
:1031000001F09CFE2C44A91E0A4801F097FE2C23D6
:103110003580094804F8013C01F090FE0121074880
:10312000318001F08BFE062070BD0520FCE700BF5A
:1031300003830008158300082D8300083A830008E4
:103140002DE9F04389B0A128109D14461E462CD1CC
:1031500020226946601CFFF760F8202820D16C46C9
:10316000DFF85490A046002718F8011B48460137A5
:1031700001F064FE202FF7D12B785A1C2A70F754E7
:103180000022B1182B7814F8010BC8540132202A00
:10319000F7D12B7820332B70072009B0BDE8F083DE
:1031A000034801F04BFE0220F7E70248F9E700BFB1
:1031B00054830008618300084B830008F7B5089D1D
:1031C00014461E4691B30D2832D11A4801F036FE3E
:1031D00000232373601C01A9FFF766F8044610BBA7
:1031E000154801F02BFE2B785A1C2A700422F25449
:1031F0000DEB02032246B018297813F8017B4754DF
:103200000132042AF7D12B780C4F04332B702B7822
:10321000A34202DC092003B0F0BD315D384601F065
:103220000DFE0134F3E7064801F008FE0820F2E73E
:103230000448F9E77583000891830008F6830008C5
:103240009D830008C7830008F8B59DF82060194FDA
:1032500004460D461848314601F0F0FD204601F0C5
:103260007BFE2B46224631460798FFF755F82B6820
:1032700012485A1E2A6013F8011C01F0DFFD214696
:103280003046FFF791F805460D4801F0D7FD0024C0
:10329000A64207DC2846FDF77DFF099B03221A7032
:1032A0001620F8BD2A5D2146384601F0C7FD0134DD
:1032B000EEE700BF53840008E3830008FB830008A7
:1032C0002A840008FF2A70B506460D46144604D825
:1032D000BDE87040044801F0B1BD044801F0AEFD06
:1032E000230A33702C7070BD6A8400088084000843
:1032F000F8B505460748084F0E4601F09FFD00242B
:10330000A54200DCF8BD325D2146384601F096FD4D
:103310000134F5E7A4840008BD8400082DE9F047D6
:10332000089E804614461F46D1B1C31E012B3CD8CF
:10333000FDF728FF04F101094444DFF884800546C5
:10334000824619F8011B0A290DD100238AF80030A2
:103350002846FDF759FE03060DD5154801F06EFD10
:103360000720BDE8F0870AF8011B404601F066FD22
:10337000A145E6D1ECE7C4B20E4801F05FFD162C82
:1033800001D90D48EAE733785A1C32700122FA5409
:1033900033789A183270FC5439463078FFF7A8FF1A
:1033A0002846FDF7F7FE0820DBE70448D6E700BF14
:1033B000CB840008EA8400080185000832850008F3
:1033C000618800082DE9F047089E804614461F4694
:1033D000D1B1C31E022B39D8FDF7D4FE04F1010987
:1033E0004444DFF878800546824619F8011B0A2913
:1033F0000DD100238AF800302846FDF705FE0306AC
:103400000DD5134801F01AFD0920BDE8F0870AF830
:10341000011B404601F012FDA145E6D1ECE7C2B226
:10342000642A01D90B48EDE73378591C317001212A
:10343000F954337859183170FA5439463078FFF717
:1034400057FF2846FDF7A6FE0A20DEE70248D9E727
:10345000CC8400085A85000893850008618800081C
:103460002DE9F04794B014461C9E1D46D1B10B289F
:1034700018D1FDF787FEDFF8A4A00746804604F1C7
:103480000A0914F8011F0A290ED1002388F8003018
:103490000A2200213846FDF769FE041E0CDA1A489C
:1034A00001F0CCFC0A2027E008F8011B504601F08F
:1034B000C5FC4C45E5D1EBE7502214496846FDF7C1
:1034C00071FE00276A4652F8043BA34217D1104808
:1034D00001F0B4FC21460F4801F0B0FC33785A1CCF
:1034E00032700122EA5433789A183270EF54294628
:1034F0003078FFF7FDFE0B2014B0BDE8F0870137F0
:10350000142FE0D10448CBE7CC840008A47700084E
:10351000B58500082A830008CB850008618800086B
:103520002DE9F3470A9E14461F4621B90B24204675
:1035300002B0BDE8F087052849D1FDF723FEDFF88A
:10354000B0A00546804604F1040914F8011F0A29B9
:103550002AD1002388F800300A2201A92846FDF765
:1035600005FE019B1B78044633BB01461A4801F057
:1035700065FC7D2C24D12146184801F05FFC33788E
:103580005A1C32700122FA5433789A183270FC5463
:1035900039463078FFF7ACFE2846FDF7FBFD0C24DA
:1035A0000F4801F04BFCC2E708F8011B504601F040
:1035B00045FC4C45C9D1CFE70A4801F03FFCB5E7CF
:1035C000FA2CD8D0B4F5FA7FD5D00748F5E70748EC
:1035D00001F034FC0B24E3E701860008278600088D
:1035E00079860008118600083F8600085786000883
:1035F000618800082DE9F3470A9E804614461F465D
:1036000011B1C31E012B04D90C24204602B0BDE821
:10361000F087FDF7B7FD04F101094444DFF89C8011
:103620000546824619F8011B0A2917D100238AF89A
:1036300000300A2201A92846FDF798FD019B1B785E
:1036400004469BB90146184801F0F8FBE31F052B1F
:1036500010D9164801F0F2FB0C2420E00AF8011BF7
:10366000404601F0EBFBA145DCD1E2E7104801F058
:10367000E5FBC9E70F4801F0E1FB21460E4801F0E8
:10368000DDFB33785A1C32700122FA5433789A18D1
:103690003270FC5439463078FFF72AFE0D24284654
:1036A000FDF778FDB1E700BF01860008A686000897
:1036B000118600088A8600082786000861880008AD
:1036C000F7B5089D17461E4609B90D2045E00328A9
:1036D000FBD1FDF757FD79780A2904461CD001700B
:1036E0001F4801F0ABFBB9780A291BD01C48617058
:1036F00001F0A4FB20460A2201A9FDF737FD019B3A
:103700001B78044683B90146164801F097FB631EF7
:10371000032B0DD9144808E001232344002203F8A9
:10372000012CE7E70223F8E7104801F087FBCCE71C
:103730000F4801F083FB21460E4801F07FFB2B78F8
:103740005A1C2A700122F2542B789A182A70F454C9
:1037500031462878FFF7CCFD0E2003B0F0BD00BF46
:103760006188000801860008A68600081186000806
:10377000B7860008CE8600082DE9F3470A9C8046EC
:1037800016461D4611B1C31E042B03D90E2002B0EC
:10379000BDE8F087FDF7F6FC06F101094644DFF8C5
:1037A000D8800746824619F8011B0A2932D1002326
:1037B0008AF8003038460A2201A9FDF7D7FC019BA0
:1037C0001F78064677BB0146264801F037FBA6F175
:1037D00006084FF6F973984528D8234801F02EFBC8
:1037E0002248314601F02AFBB8F1F90F20D823789E
:1037F0005A1C22700222EA5423785A1C2270EF5479
:1038000023785A1C2270EE5420782946FFF770FD69
:103810001020BCE70AF8011B404601F00FFBB14540
:10382000C1D1C7E7124801F009FBAFE71148FAE739
:10383000B2B20DF103010DF10200FFF743FD237851
:103840005A1C22700222EA5423785A1C22709DF8D6
:103850000220EA5423785A1C22709DF80320EA546F
:10386000D2E700BF01860008FE8600081687000820
:1038700011860008E88600086188000870B5049C7D
:1038800016461D4659B303282BD1174801F0D6FA26
:103890007378312B11D1154801F0D0FA23785A1CD6
:1038A00022700122EA54237899182170EA5429469B
:1038B0002078FFF71DFD132070BD302B0CD10C4874
:1038C00001F0BCFA23785A1C22700122EA542378B2
:1038D0009A1822700022E9E7064801F0AFFA10209A
:1038E000EAE70548F9E700BF6E8200082C87000868
:1038F0003C8700084D8700085C87000870B5049C71
:1039000016461D4659B303282BD1174801F096FAE5
:103910007378312B11D1154801F090FA23785A1C95
:1039200022700122EA54237899182170EA5429461A
:103930002078FFF7DDFC122070BD302B0CD10C4835
:1039400001F07CFA23785A1C22700122EA54237871
:103950009A1822700022E9E7064801F06FFA132056
:10396000EAE70548F9E700BF6E8200082C870008E7
:103970003C8700084D8700085C87000870B5049CF0
:1039800016461D4659B303282BD1174801F056FAA5
:103990007378312B11D1154801F050FA23785A1C55
:1039A00022700122EA54237899182170EA5429469A
:1039B0002078FFF79DFC142070BD302B0CD10C48F3
:1039C00001F03CFA23785A1C22700122EA54237831
:1039D0009A1822700022E9E7064801F02FFA122017
:1039E000EAE70548F9E700BF6E8200082C87000867
:1039F0003C8700084D8700085C870008F7B5089DE4
:103A000017461E4609B9142044E00328FBD1FDF7F0
:103A1000B9FB79780A2904461BD001701E4801F0D1
:103A20000DFAB9780A291AD01B48617001F006FA1C
:103A300020460A2201A9FDF799FB019B1B78044649
:103A40007BB90146154801F0F9F9042C0DD9144849
:103A500008E001232344002203F8012CE8E70223B5
:103A6000F8E7104801F0EAF9CDE70F4801F0E6F970
:103A700021460E4801F0E2F92B785A1C2A700122E7
:103A8000F2542B789A182A70F45431462878FFF7AC
:103A90002FFC152003B0F0BD6188000801860008E6
:103AA000A686000811860008B78600086D87000802
:103AB00070B5049C16461D4659B303282BD11748F0
:103AC00001F0BCF97378312B11D1154801F0B6F92A
:103AD00023785A1C22700122EA5423789918217005
:103AE000EA5429462078FFF703FC162070BD302BDE
:103AF0000CD10C4801F0A2F923785A1C2270012243
:103B0000EA5423789A1822700022E9E7064801F067
:103B100095F91520EAE70548F9E700BF6E8200082D
:103B20002C8700083C8700084D8700085C87000848
:103B30002DE9F3471D46DDE90A43164602220746F2
:103B40001A7011B1C31E032B03D9162002B0BDE8B1
:103B5000F087354801F072F93846FDF713FB06F19E
:103B600001093E44314F8046824619F8011B0A295B
:103B700013D100238AF800300A2201A94046FDF73C
:103B8000F5FA019B1F7806467FB90146284801F0E7
:103B900055F9002E0DDA274808E00AF8011B3846CF
:103BA00001F04CF9B145E0D1E6E7234801F046F9D0
:103BB000CBE7224801F042F92148314601F03EF9B5
:103BC000FF2E17D823785A1C22700222EA54237839
:103BD0005A1C2270EF5423785A1C2270EE5420781D
:103BE0002946FFF785FB23785A1C22704322EA54AA
:103BF0001720ABE7B2B20DF103010DF10200FFF7A0
:103C000061FB23785A1C22700222EA5423785A1C42
:103C100022709DF80220EA5423785A1C22709DF8E5
:103C20000320EA54DBE700BF8687000861880008AC
:103C300001860008E886000811860008FE86000854
:103C4000168700080023C3540133082BFBD103203F
:103C5000704700002DE9F74F1E4B0093DFF88C9062
:103C60001D4BDFF88CA001930F46EB460024451C4A
:103C70005BF8048B21464246484601F0DFF82946AE
:103C8000504601F0DBF84046FDF7BAF841460646DB
:103C900002462846FDF772F9A0B9BE4212D10F487C
:103CA000214601F0CBF844B90D4801F0C7F80120D6
:103CB00003B0BDE8F08F0124DAE70A4801F0BEF84E
:103CC0000220F5E7002CF6D0074801F0B7F80520F0
:103CD000EEE700BF9D870008AA870008DD8700087F
:103CE000EE8700080388000826880008B8870008C7
:103CF000CE8700082DE9F04104465E485E4B036024
:103D00005E4B83605E4B43605E4E5F4BC3605F4BB8
:103D100003619AB03368984710AA2146072000F043
:103D2000DDF811AA2146052000F0D8F80EAA214698
:103D3000062000F0D3F80E9B7D2B40F090800023EE
:103D40000E930FAA2146082000F0C8F812AA2146B7
:103D5000012000F0C3F8DFF83C8112AD002739469E
:103D600015F8012B4046013701F068F8202FF6D1F5
:103D70000DF12E022146022000F0B0F80DAA2146D6
:103D8000092000F0ABF80DF12F0221460A2000F0C7
:103D9000A5F80DF1310221460B2000F09FF80CAA86
:103DA00021460C2000F09AF80DF1330221460E2036
:103DB00000F094F80DF1320221460D2000F08EF84B
:103DC0000DF1360221460F2000F088F8F3681198B3
:103DD0009847BDF8363008939DF8333007939DF827
:103DE000323006939DF8303005939DF831300493BE
:103DF0009DF82F300393BDF8343002939DF83C308A
:103E00000193109BF4699DF92E10009300220E9BE4
:103E10000120A0479DF8333008939DF83230079376
:103E20009DF830309DF82F2006939DF83130059392
:103E30000023CDE90232BDF8342004930120CDE9FE
:103E40000032B4699DF83C30109A0E990990A04751
:103E50000F4B602283F815231AB0BDE8F081FA2BCE
:103E600001D101236CE7B3F5FA7F7FF46AAF022337
:103E700066E700BF6C050020152C0008212C000807
:103E8000452C0008C47900086D2C0008952C00080A
:103E900000E100E056880008F8B504460B480C4FD6
:103EA0000D4600F0CBFF0026B54209DC094800F0C2
:103EB000C5FF094B20469B6A294698470620F8BD56
:103EC000A15D384600F0BAFF0136EDE766880008CC
:103ED000F68300087F880008C4790008F0B506461C
:103EE00097B0084601AB314614460DF10302FEF7C8
:103EF00002FA01999DF8030001310191FEF754FA8D
:103F0000013E05460E2E16D8DFE806F0084D1515C1
:103F10001F2C43434F4747474D474F009DF8033001
:103F2000202B0ED1034600F1200253F8041B44F865
:103F3000041B9342F9D12846FDF72CF9012017B054
:103F4000F0BD1E4800F07AFFF5E750221C4902A898
:103F5000FDF728F92B7816AA02EB830353F8503C9F
:103F60002360E8E7174B02934FF4FA73ADF80C3077
:103F7000002301781A4602A830F8026B01338E4202
:103F800004BF0F460122062BF6D1002AD3D02760AA
:103F9000D1E70378E4E70C48D4E70378003B18BF87
:103FA00001232370C7E70378FBE79DF80330022B5A
:103FB000F1D1038805485BBA2380C3E71A81000862
:103FC000F47700087D00FA00B28800089D88000898
:103FD00070472DE9F84F98460D9B15469A07DDE985
:103FE0000B4906460F4623D02A460A9B03EB040AD8
:103FF0001444A24220D10D9B9B0705D5A2EB050AD4
:10400000D14505EB0A0420D82046BDE8F88F434689
:1040100039462020B0470AF1010ACA450AEB0B02D3
:10402000F5D3A9EB04024C4588BF00222A44DCE703
:10403000A246A5EB040BF0E702F1010B1AF8010D03
:1040400043463946B0475A46D3E7434622463946A7
:104050002020B0470AF1010AD2E72DE9F047DDE957
:104060000D7616F0020FDDE90854DDE90BCE9DF860
:1040700028801FD106F001094FB1B9F1000F06D019
:10408000B8F1000F02D116F00C0F00D0013F4FF035
:10409000300A04E0202C04D005F804A00134744553
:1040A000F8D3B9F1000F05D04FF03009A74201D97C
:1040B000202C2DD116F0100F1FD016F4806F2CD1AC
:1040C0005CB3744501D0BC4227D1B4F1010E23D0BA
:1040D000BCF1100F46D1023C16F0200F28D1202C45
:1040E00028D04FF0780C05F804C00134202C21D0E2
:1040F0004FF0300C05F804C00134202C1AD0B8F170
:10410000000F23D04FF02D0C05F804C0013412E04D
:1041100005F804900134C9E77446BCF1100FDBD0F8
:10412000BCF1020FE2D1202C04D04FF0620CDAE790
:10413000202C08D12024CDE90A76CDE90854BDE829
:10414000F047FFF746BF4FF0580CCCE716F0040FCE
:1041500002D04FF02B0CD7E716F0080FEBD04FF042
:10416000200CD1E7BCF1020F7446C1D1DDE72DE987
:10417000F04391B0189D1A9E1D9F0DB927F01007AE
:104180007C0500D515B317F0200F14BF4FF0410E7A
:104190004FF0610EAC460DF120080025AEF10A0E7D
:1041A000BCFBF6F906FB19C95FFA89F4B9F1090FEE
:1041B00094BF30347444E4B2B44508F8014BBCFBFE
:1041C000F6F405F1010501D3202D10D11C9C0594B6
:1041D0001B9C0697CDE903649DF86440CDE901542A
:1041E00008AC0094FFF739FF11B0BDE8F083A44696
:1041F000D6E72DE9F04F95B0DDE91E74269ECDE996
:104200000A2357EA040308BF26F010067205CDE919
:104210000801DDE9229B02D557EA040337D016F0E6
:10422000200F14BF412361230DF1300A0025A3F1B3
:104230000A0821464A465B463846FCF743FCD2B2A0
:10424000092A94BF303242444F45D2B274EB0B047A
:104250000AF8012B05F1010501D3202D14D1259B6E
:104260000593249B0696CDE903939DF88030CDE914
:1042700001530CAB0093DDE90801DDE90A23FFF7E8
:10428000ECFE15B0BDE8F08F07460C46D1E70025DF
:10429000E5E70000000000002DE9F04F2DED028B56
:1042A00093B09DED1E7B1F46DDE920530B920E93CC
:1042B00053EC172BCDE90901104619468DED067B0D
:1042C000229EFCF785FB80B1DDE90601C44B4FF06F
:1042D000FF32FCF7A5FB40B9DDE906014FF0FF32E4
:1042E0006FF48013FCF77EFB90B10E9B0998229629
:1042F0009DED067BDDE90A12CDE920533B468DEDAD
:104300001E7B13B0BDEC028BBDE8F04F00F080B90E
:10431000DDE9060100220023FCF764FB002800F021
:104320003681DDE906A303F1004B16F480630F9399
:10433000CBF30A53A3F2FF3307EE903ACBF3130209
:10434000F8EEE77A9FEDA77A9FEDA78AA74B42F098
:104350007F5150464FF0000241F4401108BF06253E
:10436000A7EE878AFBF714FF97A3D3E90023FCF796
:10437000C7F8804618EE100A8946FCF769F802462D
:104380000B4640464946FBF705FFFCF753FB07EE9B
:10439000900AB8EEE77ADFED967AB6EE008AA7EEDD
:1043A000278A0446DFED937ABDEEC88AF8EEC86A24
:1043B00067EEE67ADFED906AE7EE267A17EE900A6E
:1043C000FCF746F802460B46CDE90C23FCF798F8BB
:1043D000DDE90C238046894610461946FBF7DAFED4
:1043E000864BCDE91001002240464946FCF7B2F960
:1043F000834B0022FBF7CEFE02460B464046494661
:10440000FCF7A8F97F4B0022FBF7C4FE02460B46DF
:1044100040464946FCF79EF9DDE90C238046894673
:1044200000204FF08041FBF7B3FE02460B464046AA
:104430004946FBF7AFFE02460B46DDE91001FCF7EB
:1044400089F9714B0022FBF7A5FE18EE103A03F232
:10445000FF3C00224FEA0C53FCF752F852465B46F1
:1044600080468946FCF7DCFA002840F09380CDE9CD
:104470000C8904F16303C62B8CBF4FF005084FF085
:10448000040831051ED552A3D3E9002350465946EE
:10449000FCF7BCFA002800F087804FA3D3E9002383
:1044A00050465946FCF79EFA00287DD0A542C8BF69
:1044B0002C1B4FF00008CCBF04F1FF35002546F45B
:1044C000806644460E9B984534BFA3EB08094FF025
:1044D000000916F002030F9304D0B8F1000F18BFC3
:1044E0004FF000093CB150465946DDE90C23FCF77A
:1044F00031F982468B46DDE9060100220023FCF7F4
:1045000071FA10B10BF100439B4626F40063CDE92C
:104510000393DDE90A12CDE900AB099802953B4609
:1045200000F076F80246B8F1000F2AD016F0200FFE
:1045300000F101050A99099E0CBF652045203B4604
:10454000B0470523059308F1FF33049300220A23A3
:10455000002CCDE902324FEAD473B8BF6442019314
:104560002A463B46DDE909010094FFF700FE0F9B58
:10457000024633B10B9BC41A0B9B1A190E9BA34224
:1045800019D8104613B0BDEC028BBDE8F08FDDE901
:1045900006ABCAE61A4B002240464946FCF7DAF859
:1045A000013CCDE90C0164E7002D8BD00F9B002B63
:1045B00088D0013D86E70A99099D3B462020A847FF
:1045C0000134D9E7AFF3008000000060A787D23F35
:1045D000000000E0E2361A3F0000000080842E4117
:1045E000FFFFEF7F9B209A3E4451343E0000F83F8E
:1045F000789A54401872313F8E5D134000002C4071
:1046000000002440000018400000F03F00000000BF
:104610002DE9F04F97B0DDE920ABCDE90501CDE9FB
:104620000723504652465B465946DDE92258249FEF
:10463000FCF7CEF970B90323CDE922872193AE4B65
:104640002093DDE90501DDE9072317B0BDE8F04F50
:10465000FFF7BFBC4FF0FF326FF48013504659464E
:10466000FCF7C0F928B104232193CDE92287A34B9D
:10467000E6E7A34B4FF0FF3250465946FCF7D0F91E
:1046800068B1A04A07F00403002B08BF03229E4B29
:104690001CBF13460422CDE922872192D0E792A3C2
:1046A000D3E9002350465946FCF7BAF938B990A32C
:1046B000D3E9002350465946FCF794F968B1DDE987
:1046C0000723DDE90501CDE92387CDE920AB22955C
:1046D00017B0BDE8F04FFFF7DFBD002200235046C2
:1046E0005946FCF77FF9002800F091805B4652465E
:1046F00000200021FBF74CFD012382468B460993E5
:1047000017F4806400F08580092D40F285800EAB9F
:10471000A5F10902002430210134202C03F8011BEB
:10472000A5EB040901D09442F6D159465046FCF756
:1047300081F9764B03EBC90393ED007B05468DEDC4
:104740000A7BFBF773FE02460B4650465946FBF7C1
:104750001FFDDDE90A23FBF7D3FE02460B46CDE938
:104760000C23FCF78FF90646FBF750FE02460B467A
:10477000DDE90C01FBF70CFD02460B46CDE90C23ED
:10478000634B0022FCF74CF9002848D00136304634
:10479000FBF73CFE02460B46DDE90A01FCF72CF96B
:1047A00008B101350026B9F1000F45D12846FBF7C5
:1047B0003DFE02460B4650465946FBF7E9FC544B7A
:1047C0000022FCF70FF910B9E90700D501350EAB4F
:1047D0001A190A21202C0AD095FBF1F001FB105583
:1047E000303502F8015B013405460028F2D107F0AC
:1047F0000302012A5DD1B8F1000F5AD0099A12B90B
:1048000017F00C0F01D008F1FF3830223FE009907B
:1048100076E74FF0060988E7A946002485E7DDE939
:104820000C013B4B0022FCF7DDF80028BBD10EB198
:10483000F007B8D50136B6E70EAB1A190A21202CBD
:104840000CD0B6FBF1F001FB10633033092E02F8F7
:10485000013B09F1FF3904F1010411D8A1440EAA6A
:104860003021202CB3D04C4504F101030AD104F1CE
:1048700058020DEB02042E2204F8202C1C46A6E759
:104880000646DCE7A1541C46EBE71A5501344445C3
:104890000FD2202CF9D10EAB0093CDE90287DDE9D0
:1048A0000723DDE905010194FFF793FB17B0BDE88D
:1048B000F08F202CEFD0099B3BB104F158036B44DF
:1048C0002D2203F8202C0134E5E77A0704D504F102
:1048D00058036B442B22F4E73B07DCD504F1580363
:1048E0006B442022EDE700BF0000000065CDCD4104
:1048F0000000000065CDCDC1E9880008ED88000802
:10490000FFFFEF7FE0880008E5880008487800088E
:104910000000E03F014610B1014801F0F9B87047CE
:10492000003000402DE9F04F91B098460B1E0A93DD
:10493000B34B1A9E914614BF83469B46002598F8B8
:10494000000060B94D450A992CBF09F1FF322A4693
:104950004B460020D847284611B0BDE8F08F2528E7
:1049600008F1010806D02A460A996C1C4B46D84724
:104970002546E4E70023414611F8012B2B2A16D0E7
:104980000AD8202A16D0232A17D0A2F130000928ED
:1049900034D800270A2418E02D2A05D0302AF4D173
:1049A00043F001038846E6E743F00203FAE743F0E9
:1049B0000403F7E743F00803F4E743F01003F1E7DB
:1049C00004FB0722A2F130078846414611F8012B6B
:1049D000A2F130000928F3D998F800202E2A52D1EC
:1049E00098F80110A1F13000092808F1010243F400
:1049F00080633ED800244FF00A0E11E02A2A08D125
:104A000056F8047B002FBCBF43F002037F42884668
:104A1000E2E70027E0E70EFB0411A1F130040246B3
:104A2000104610F8011BA1F1300CBCF1090FF2D9AE
:104A30009046424612F8011B6C292DD025D86829D2
:104A400033D06A293BD04246904618F8010B6728BC
:104A500060D8572836D8452808D084D9462800F091
:104A6000188147287FF47FAF43F4006343F02003AD
:104A700029E12A2906D156F8044B08F1020824EA54
:104A8000E474D6E790460024D3E7742901D07A294C
:104A9000D9D143F48073D7E798F801106C29F8D185
:104AA00043F4407308F10202CEE798F80110682938
:104AB00002D043F08003C7E743F0C003F2E743F4BA
:104AC0000073C1E7A0F158020F2A3FF64CAF01A1D5
:104AD00051F822F0754B0008674900086749000843
:104AE00067490008674900086749000867490008E6
:104AF000674900086749000867490008754B0008C6
:104B0000E94C0008754B0008BB4C0008974C0008A6
:104B1000BB4C0008A0F16901C9B20F293FF623AFD1
:104B200001228A4049F2410C12EA0C0218D10A29EA
:104B300000F0198107297FF416AF43F02103059394
:104B40000823CDE903431023CDE9012356F8043BA4
:104B500000930A994B462A465846FFF708FBAAE0FD
:104B60006F2800F0648110D9782808D1102223F032
:104B70000C0310E0582839D0622800F05A8123F045
:104B800010030A22642806D0F1E7692823F01003F5
:104B90004FF00A02F6D1590548BF23F001036928F6
:104BA00003F4007101D0642840D111B3073626F018
:104BB0000706B24670685AF8081B0694CDE90773D9
:104BC00000230593C30F0028029304920B4602DAD8
:104BD0004B4260EB4000CDE900300A994B462A4633
:104BE0005846FFF706FB05465646A8E643F0200365
:104BF000BCE7D90506F1040A04D5316805E000BF19
:104C0000D13F000858060CD53178CDE90224CDE912
:104C1000047300294FEAD1730193B8BF4942009150
:104C200020E01906E9D5B6F90010EEE779B1CDE933
:104C300007730023CDE9042306F1070A2AF0070AC7
:104C400006940293FAE80223CDE90023C5E7D805CC
:104C500006F1040A0DD5CDE90473CDE902240191D2
:104C6000336800930A994B462A465846FFF77FFA65
:104C7000B9E7590607D53178CDE904730023CDE9AA
:104C800002240193CBE7316813F0800F18BF89B27B
:104C9000F2E743F02003CDE90373073626F0070659
:104CA0000294F6E802230A99CDE9002358464B46C0
:104CB0002A46FFF7ADFC054641E600F0DF00472835
:104CC00001D143F40063CDE90373073626F00706EC
:104CD0000294F6E802230A99CDE9002358464B4690
:104CE0002A46FFF7D9FAE6E713F0020426D04FF080
:104CF000010A6B1C0B930A9916F8040B4B462A46C3
:104D0000D84774B30B9A544621E00A994B462020A9
:104D1000D8470AEB05020AF1010A5745F5D83A1EB1
:104D200018BF0122002A07F1FF3308BF002307F153
:104D3000010A1D4408BF4FF0020ADAE7A246E8E77D
:104D4000551C0A994B462020D84701342A46BC42BC
:104D5000F6D30B9AA7EB0A03574538BF00231A4432
:104D60000B920B9DEBE5324652F804AB0B92324AA4
:104D7000BAF1000F08BF9246002C14BF21464FF035
:104D8000FF3151445246107808B1914210D1A2EB44
:104D90000A0613F480620C9202D0A64228BF26466F
:104DA00013F002030D9317D1731B2A460F9308E0EB
:104DB0000132E8E7531C0E930A994B462020D8474E
:104DC0000E9A0F9BD318BB42F4D3BB1BB74238BF1C
:104DD0000023721C1D449E18A5EB0A030E9304E0E9
:104DE0001C460A994B462A46D8470E9B0AEB0305F8
:104DF0001AF8010B28B10C9B002BF2D0631E002C7B
:104E0000EED10D9B8BB12A46741B06E002F1010A1C
:104E10000A994B462020D84752461319BB42F5D376
:104E2000BB1BB74238BF00231D440B9E87E50822F9
:104E30009DE602229BE600BFF28800080FB41FB572
:104E400006AA02A952F8043B0392009204484FF0CC
:104E5000FF32FFF767FD05B05DF804EB04B0704763
:104E600015490008064B0748E02283F82220C0219C
:104E70000023C2180133252B82F80013F9D17047A3
:104E800000ED00E000E100E00F4A08B5D2F88830FC
:104E900043F47003C2F888304FF08042D36843F087
:104EA0008003D36002F50032536923F4702343F486
:104EB0008033536193689B07FCD5FFF7D3FFBDE8B0
:104EC000084000F003B800BF00ED00E008B5012085
:104ED00000F08CF90C4B984214D90C4A0133B0FB0A
:104EE000F3F313700A4A4FF47A73B0FBF3F04FF008
:104EF000E0230138E021586182F8231000229A61F2
:104F000007221A6108BD00BF3F420F00880500203C
:104F100000ED00E070B50C4B4FF0E0241B786669A3
:104F200073B1A16958430023A2699142FCD095BF97
:104F3000B51A5B1849199B1A98BF5B18834200D3B6
:104F400070BD1146F0E700BF880500204FF47A736A
:104F50005843FFF7DFBF0000144B15499A68D2048D
:104F600044BF4FF480529A60124B134A99619A6180
:104F70001A6802F4007242F022021A60002299615B
:104F80009A614FF0FF320260084A9168C90405D562
:104F90004FF4805393606FF0670070479A68D207B0
:104FA000FCD501229A600020704700BF00F000404D
:104FB000BFAE9D8C0000024016151413284B2DE93E
:104FC000F34715469A68274C0746D00444BF4FF470
:104FD00080529A60244A254BA261A361236803F49E
:104FE000007343F0240323604FF00008A26125F012
:104FF000070905F007020E46C4F818804D4538BF72
:1050000042464FF0FF3A49446846CDE900AAFCF712
:10501000C9F8134A4346301D4FF0010C9D4201D898
:10502000002013E099458BBFF1580099E160E160E1
:105030008CBFC1580199216147F803A09168C90448
:1050400007D54FF4805393606FF0670002B0BDE85E
:10505000F087A168C907FCD5C4F808C00833DDE7AC
:1050600000F0004000000240BFAE9D8C16151413E6
:10507000012310B58B40062A00F28180DFE802F0A0
:10508000040F1B293849630002681A4302608268D2
:105090001A438260C26822EA0303C36018E0026810
:1050A0001A43026082681A438260C2681A43C2606F
:1050B000026913430BE002681A43026082681A43D4
:1050C0008260C2681A43C260026922EA0303036174
:1050D00010BD026822EA03020260826822EA03022B
:1050E0008260426822EA03024260826913430EE052
:1050F000026822EA03020260826822EA03028260F6
:10510000426822EA03024260826922EA0303836161
:10511000DEE71E4CA0426FEA03020BD1072909D932
:1051200081691140816181680A40826002681A4386
:105130000260BDE701681140016081680A40826039
:1051400042681A43D0E7114CA0426FEA03020AD129
:10515000072908D981691140816181681140816006
:1051600001680A40E4E7016811400160816811406C
:10517000816041680B43436083691340C7E702685D
:105180001A430260826822EA030282E700FC0140BF
:10519000072910B511D90E4B083998420BBF01EB06
:1051A0004101890007230F238B4002FA01F1C26BF2
:1051B00022EA03030B43C36310BD836B89000F24F2
:1051C0008C4023EA04038A401A438263F4E700BF59
:1051D00000FC0140044AD36818B143F08003D36057
:1051E000704723F08003FAE7008000404FF08043CF
:1051F00001461A6802F4E042B2F5A04F20D015D85B
:10520000B2F5805F1ED0B2F5005F1B4808BF4FF4B7
:10521000004002291BD0032923D0012905D14FF0DA
:1052200080431B68C3F30323D8407047B2F5C04FD7
:105230000BD0114B1148B2F5E04F18BF1846E8E704
:105240000F48E6E74FF4FA40E3E70E48E1E74FF096
:1052500080421368C3F30323D8401368C3F3421397
:10526000E2E74FF080421368C3F30323D84013688A
:10527000C3F3C233D8E700BF00366E01006CDC0216
:105280000048E80180EE36004FF08043986800F453
:10529000C03070474FF08043986800F4C0407047BA
:1052A0004FF08043986800F4C05070474FF080433F
:1052B000986800F4C06070474FF08043586800F071
:1052C0000200704741284AD8DFE810F011020702B7
:1052D000FD01E401D201B901710167015D015301D2
:1052E00049013F0135010D010301D600EA00E0004C
:1052F000CC004900C200B800AE00A30099008F00A6
:1053000085006B00610057004D004200170121012C
:105310002B01490049004900490049004900490062
:105320004900490049004900490049002E02250270
:105330001B02380295014900490049004900490013
:1053400049004900490049004900490042024C0215
:105350004FF08043DA6819B142F48012DA60704786
:1053600022F48012FAE74FF08043DA6811B142F478
:105370000022F3E722F40022F0E74FF08043DA68DE
:1053800011B142F48022E9E722F48022E6E74FF0EF
:105390008043DA6811B142F40032DFE722F40032D0
:1053A000DCE74FF08043DA6879B142F48032DA60AA
:1053B0004FF080439A6A02F03F023F2AFAD15A69BD
:1053C00031B142F004025A61704722F48032EEE7B4
:1053D00022F00402F7E74FF08043DA6811B142F49B
:1053E0000042BBE722F40042B8E74FF08043DA689E
:1053F00011B142F48042B1E722F48042AEE74FF0AF
:105400008043DA6811B142F40052A7E722F4005257
:10541000A4E74FF080431A6919B142F020021A61E3
:10542000704722F02002FAE74FF08043DA6811B1AA
:1054300042F4805292E722F480528FE74FF080438B
:10544000DA6811B142F4006288E722F4006285E76D
:105450004FF08043DA6811B142F480627EE722F4B3
:1054600080627BE74FF08043DA6811B142F48072CA
:1054700074E722F4807271E74FF08043DA6811B16B
:1054800042F020026AE722F0200267E74FF08043F3
:10549000DA6811B142F0800260E722F080025DE735
:1054A0004FF08043DA6871B142F04002DA604FF0A9
:1054B00080439A6A02F03F023F2AFAD15A6929B121
:1054C00042F008027FE722F04002EFE722F00802F4
:1054D00079E74FF08043DA6811B142F010023DE7FE
:1054E00022F010023AE74FF08043DA6811B142F03F
:1054F000007233E722F0007230E74FF08043DA6841
:1055000011B142F0807229E722F0807226E74FF055
:105510008043DA6811B142F400021FE722F400026E
:105520001CE74FF08043DA6811B142F4800215E7BE
:1055300022F4800212E74FF08043DA6811B142F0A2
:1055400008020BE722F0080208E74FF08043DA6810
:1055500011B142F0040201E722F00402FEE64FF02E
:105560008043DA6811B142F00202F7E622F002024B
:10557000F4E64FF08043DA6811B142F00102EDE643
:1055800022F00102EAE64FF08043DA6811B142F0FE
:105590000062E3E622F00062E0E64FF08043DA6862
:1055A00011B142F08062D9E622F08062D6E64FF077
:1055B00080431A6979B142F400721A619A6A02F062
:1055C0003F023F2AFAD15A6942F010025A611A6921
:1055D00042F0100223E722F010021A619A6A02F0E8
:1055E0003F023F2AFAD15A6922F010025A611A6921
:1055F00022F4007213E74FF080431A6979B142F444
:1056000080521A619A6A02F03F023F2AFAD15A691F
:1056100042F020025A611A6942F40062FFE622F465
:1056200000621A619A6A02F03F023F2AFAD15A696F
:1056300022F020025A611A6922F48052EFE64FF0FC
:1056400080431A6971B142F008021A614FF0804339
:105650009A6A02F03F023F2AFAD15A6929B142F010
:105660000102B0E622F00802EFE722F00102AAE60A
:105670004FF080431A6931B142F004021A611A698D
:1056800042F04002CBE622F004021A611A6922F0CD
:105690004002C4E64FF080431A6971B142F0020241
:1056A0001A614FF080439A6A02F03F023F2AFAD112
:1056B0005A6929B142F0020285E622F00202EFE7C0
:1056C00022F002027FE64FF08043DA6811B142F027
:1056D000805243E622F0805240E64FF080431A6940
:1056E00011B142F001029AE622F0010297E64FF072
:1056F00080431A6911B142F0800290E622F08002E4
:105700008DE64FF080431A6911B142F4807286E64B
:1057100022F4807283E64FF08043DA6809B11A43BD
:105720001CE622F0804219E64FF08043DA6811B19E
:1057300042F0005212E622F000520FE64FF0804392
:105740001A6911B142F4806269E622F4806266E669
:105750004FF08043DA6811B142F40012FEE522F402
:105760000012FBE54FF08043DA6811B142F00042CD
:10577000F4E522F00042F1E510B50C4605280ED8FC
:10578000DFE800F003151F28345F374A3749936973
:1057900034B123F0200393618B685B07FCD510BD07
:1057A00043F0200393618B685C07FCD4F7E72E4A33
:1057B000936819B123F400439360F0E743F4004386
:1057C000FAE7294A936811B123F4C043F4E743F49C
:1057D000C043F1E7244A936923F0180319B143F059
:1057E00008039361DBE743F01003FAE701210E2081
:1057F000FFF768FD1E4BD3F80421CCB190060BD403
:10580000D3F8042142F02002C3F80421D3F8042184
:1058100022F08002C3F80421D3F8042142F00402EC
:10582000C3F80421124AD2F808319907FBD5B6E72C
:1058300022F00402C3F80421D3F808219207FBD414
:10584000ADE7094A0949936934B123F040039361F4
:105850008B68002BFCDAA2E743F0400393618B686E
:10586000002BFCDB9BE700BF008000400082004073
:10587000009000403F281DD82F280DD93038012333
:1058800083404FF0804219B9D1690B43D36170470F
:10589000D16921EA0303F9E7A0F12003DBB2022B6F
:1058A00098BF0D20012383404FF0804219B99169C0
:1058B0000B4393617047916921EA0303F9E708B547
:1058C00000210320FFF7FEFC01210320FFF7D2FF98
:1058D000BDE8084000210320FFF7CCBF034940F694
:1058E000FF52CB6A32EA0303FBD1704700E000406D
:1058F00008B5FFF7F3FF054B1A6818B142F0805264
:105900001A6008BD22F08052FAE700BF00E00040B4
:1059100008B5FFF7E3FF054B1A6818B142F0807233
:105920001A6008BD22F08072FAE700BF00E0004074
:10593000012808B50AD8FFF7D1FF054B1A680128DE
:105940000CBF42F0007222F000721A6008BD00BF66
:1059500000E00040F8B5054600285ED0314B5F6B93
:10596000B9B25E6C5A6CB242FBD19C6C9A6CA2428A
:10597000FBD15A6B92B29142F1D10029EFD0FFF7DF
:105980009BFCBFB207EE907AB8EEE77AF6EE007AAB
:10599000002843D1DFED246AC6F3021306F00F029C
:1059A00003EB830302EB4303EB71C6F3C223C6F39D
:1059B000C31203EB830302EB4303AB71C6F38143D2
:1059C00003EB8303C6F3833606EB4306C4F30113EC
:1059D00004F00F0203EB830302EB43032B71C4F3C8
:1059E0008023C4F3831203EB830302EB4303E7EE4C
:1059F000267AEB70C4F3C223AB70C4F3834303EB8A
:105A00008303C4F38334FCEEE77A04EB430404F528
:105A1000FA64C5ED027A6E712C80F8BDDFED036A81
:105A2000BAE700BF00E000400024F4410000FA4162
:105A3000202810B50C4611D8032808D8431E012B86
:105A40000BD8FFF74BFF44B9064BD86105E0064B76
:105A5000021FD2B2D340DB07F3D410BD4028FCD1E3
:105A6000EFE700BF00E0004011100010202810B543
:105A7000044615D803280BD8431E012B12D8FFF774
:105A80002DFF094BDB699C430CBF0120002006E081
:105A9000021F064BD2B2D34013F00100EFD110BD6C
:105AA0004028ECD00020FAE700E000401110001080
:105AB000202814D803280BD8431E012B13D8012902
:105AC00011D8094B9A6A0CBF024382439A620AE0DA
:105AD000064B021FD2B2D340DB07F0D470474028F8
:105AE000EDD08028EBD0704700E00040111000108E
:105AF00008B518B1FFF7F2FE014B986108BD00BF71
